:020000040000FA
:100000000A128A11E72F00308A000408840A820746
:1000100000343234303432343334003453346934BD
:1000200073347434653461346D3461342034423453
:100030006C346F34713475346534613464346F34C6
:10004000003443346C3461347634653420344934BC
:100050006E3463346F3472347234653463347434A0
:100060006134003443346C34613476346534203484
:1000700043346F34723472346534633474346134AD
:100080000034503472346534733473342034613442
:0A00900020344B3465347934003419
:1009EA00F030FF007F08831603138605F030FF00FE
:1009FA007F0886048113080001300A128A11A02593
:100A0A000A128A110830F400C930F300F30B0B2DD7
:100A1A00F40B0B2D102D08003134323433344134A9
:100A2A003434353436344234373438343934433450
:100A3A002A343034233444347E088A007F08820002
:100A4A000A128A1121250A128A118000840A0408CE
:100A5A007D0603190034FF0A0319FE0A252DF30047
:100A6A00462D730884000A128A1103200A128A1179
:100A7A000A128A11D6250A128A110130FF007F084C
:100A8A00F307730884000A128A1103200A128A11D2
:100A9A00003A031D512D522D362D0800F600023062
:100AAA0076020318592D5A2D652D74080F3980388E
:100ABA00F70077080A128A11A0250A128A116F2DE7
:100ACA0074080F39C038F70077080A128A11A0256E
:100ADA000A128A1175080A128A1134250A128A1111
:100AEA0008008316031388012730F400F530F30059
:100AFA00F30B7D2DF40B7D2D02300A128A11A025ED
:100B0A000A128A1128300A128A11A0250A128A1199
:100B1A0001300A128A11A0250A128A110C300A120F
:100B2A008A11A0250A128A1106300A128A11A025F2
:100B3A000A128A110800F200F0307205F0008312DE
:100B4A00031308080F39700488000810881400007D
:100B5A008312031388100330F1009730F000F00B72
:100B6A00B42DF10BB42DB92D7208F0000430031026
:100B7A00F00DFF3E031DBC2D8312031308080F3925
:100B8A007004880088140000831203138810083048
:100B9A00F100C930F000F00BD02DF10BD02DD52D7E
:100BAA000800F200F0307205F000831203130808FF
:100BBA000F39700488000814881400008312031384
:100BCA0088100330F1009730F000F00BEA2DF10B9A
:100BDA00EA2DEF2D7208F00004300310F00DFF3EED
:100BEA00031DF22D8312031308080F3970048800BD
:100BFA00881400008312031388100830F100C930EA
:100C0A00F000F00B062EF10B062E0B2E0800F50055
:100C1A00412E75088400831300080319152E162E19
:100C2A00262E700884000A128A1103200A128A11D9
:100C3A00F30075088400000873060319252E262E72
:100C4A00392E700884000A128A1103200A128A11A6
:100C5A00F300750884000008F40073087402F000B9
:100C6A00F101031CF103512E0130FF007F08F50743
:100C7A000130FF007F08F0070130F1020030031C49
:100C8A00F203F202710A031D4E2E720A031D4E2E42
:100C9A004F2E0E2EF001F101080071308316031356
:100CAA008F0089018312031389010A128A1176259A
:100CBA000A128A110A128A11F5240A128A11F401F7
:100CCA003930F50000300A128A1153250A128A11A6
:100CDA00C0300A128A11A0250A128A110A128A1130
:100CEA0006270A128A11FB007B0803197D2E7E2E25
:100CFA008E2E2A300A128A11D6250A128A117D08E6
:100D0A00433E84007B08831380000130FF007F0884
:100D1A00FD070230FA000430F900BA30F800F80B87
:100D2A00942EF90B942EFA0B942E000005307D02B6
:100D3A00031CA02EA12E732E0130F0000430F10006
:100D4A000030F20043300A128A110C260A128A1164
:100D5A0070087104031DB22EB32EC62E0A128A1110
:100D6A0001250A128A11F4012A30F50000300A120C
:100D7A008A1153250A128A11831203130914FD01D9
:100D8A00F02E0A128A1101250A128A11F401193069
:100D9A00F50000300A128A1153250A128A118312A9
:100DAA000313091503307C06031DDC2EDD2EEA2E03
:100DBA00F4010630F50000300A128A1153250A128E
:100DCA008A11831203138914F02E0130FF007F0861
:100DDA00FC070630FD001530FA004B30F900BE3032
:100DEA00F800F80BF62EF90BF62EFA0BF62E000089
:100DFA000A128A1101250A128A11642E0A128A110C
:100E0A000028203084003330F0000408F10010304C
:100E1A00F2007008840083130008F300F00A7108D6
:100E2A00840073088000F10AF20B0E2F8312031359
:100E3A00B001B101B2018312031331083204031D58
:100E4A00272F282F4D2FFE3086004230F000F00B5E
:100E5A002C2F0000322F2008B00083120313061E25
:100E6A00372F382F302F3B2F2108B000861E3E2FF8
:100E7A003F2F392F422F2208B000061F452F462F39
:100E8A00402F492F2308B000861F4C2F4D2F472F84
:100E9A0031033204031D522F532F782FFD30860061
:100EAA004230F000F00B572F00005D2F2408B000ED
:100EBA0083120313061E622F632F5B2F662F2508EA
:100ECA00B000861E692F6A2F642F6D2F2608B00086
:100EDA00061F702F712F6B2F742F2708B000861FE3
:100EEA00772F782F722F023031063204031D7E2F9E
:100EFA007F2FA42FFB3086004230F000F00B832FA7
:100F0A000000892F2808B00083120313061E8E2FB3
:100F1A008F2F872F922F2908B000861E952F962F84
:100F2A00902F992F2A08B000061F9C2F9D2F972FCC
:100F3A00A02F2B08B000861FA32FA42F9E2F0330AB
:100F4A0031063204031DAA2FAB2FD02FF7308600AB
:100F5A004230F000F00BAF2F0000B52F2C08B00084
:100F6A0083120313061EBA2FBB2FB32FBE2F2D08D1
:100F7A00B000861EC12FC22FBC2FC52F2E08B0006D
:100F8A00061FC82FC92FC32FCC2F2F08B000861FCA
:100F9A00CF2FD02FCA2F0130B1070318B20A003061
:100FAA00B2073208803AFF0080307F02031DDF2F2C
:100FBA0004303102031CE22FE32F202F8312031384
:100FCA003008080083134330FD000530FE0011305D
:100FDA00FF00333084000A128A1125250A128A1169
:100FEA00C301C401C501C601C701FC01FD0183019A
:060FFA000A128A11522EBA
:04400E00D520FF3F7B
:00000001FF
